{
  "address": "0x9fE46736679d2D9a65F0992F2272dE9f3c7fa6e0",
  "abi": [
    {
      "inputs": [
        {
          "internalType": "address",
          "name": "priceFeedAddress",
          "type": "address"
        }
      ],
      "stateMutability": "nonpayable",
      "type": "constructor"
    },
    {
      "inputs": [],
      "name": "FundMe__NotOwner",
      "type": "error"
    },
    {
      "stateMutability": "payable",
      "type": "fallback"
    },
    {
      "inputs": [],
      "name": "MINIMUM_USD",
      "outputs": [
        {
          "internalType": "uint256",
          "name": "",
          "type": "uint256"
        }
      ],
      "stateMutability": "view",
      "type": "function"
    },
    {
      "inputs": [],
      "name": "cheaperWithdraw",
      "outputs": [],
      "stateMutability": "payable",
      "type": "function"
    },
    {
      "inputs": [],
      "name": "fund",
      "outputs": [],
      "stateMutability": "payable",
      "type": "function"
    },
    {
      "inputs": [
        {
          "internalType": "address",
          "name": "funder",
          "type": "address"
        }
      ],
      "name": "getAddressToAmountFunded",
      "outputs": [
        {
          "internalType": "uint256",
          "name": "",
          "type": "uint256"
        }
      ],
      "stateMutability": "view",
      "type": "function"
    },
    {
      "inputs": [
        {
          "internalType": "uint256",
          "name": "index",
          "type": "uint256"
        }
      ],
      "name": "getFunder",
      "outputs": [
        {
          "internalType": "address",
          "name": "",
          "type": "address"
        }
      ],
      "stateMutability": "view",
      "type": "function"
    },
    {
      "inputs": [],
      "name": "getOwner",
      "outputs": [
        {
          "internalType": "address",
          "name": "",
          "type": "address"
        }
      ],
      "stateMutability": "view",
      "type": "function"
    },
    {
      "inputs": [],
      "name": "getPriceFeed",
      "outputs": [
        {
          "internalType": "contract AggregatorV3Interface",
          "name": "",
          "type": "address"
        }
      ],
      "stateMutability": "view",
      "type": "function"
    },
    {
      "inputs": [],
      "name": "getVersion",
      "outputs": [
        {
          "internalType": "uint256",
          "name": "",
          "type": "uint256"
        }
      ],
      "stateMutability": "view",
      "type": "function"
    },
    {
      "inputs": [],
      "name": "withdraw",
      "outputs": [],
      "stateMutability": "payable",
      "type": "function"
    },
    {
      "stateMutability": "payable",
      "type": "receive"
    }
  ],
  "transactionHash": "0xc4289f6c318cb40200325d80daa28bb2637e484b73daebf57eb85b577213ad32",
  "args": [
    "0x5FbDB2315678afecb367f032d93F642f64180aa3"
  ],
  "numDeployments": 1,
  "solcInputHash": "fd70f8278a703cb51e922885ccee2f1d",
  "bytecode": "0x60a06040523480156200001157600080fd5b50604051620014e8380380620014e883398181016040528101906200003791906200011c565b3373ffffffffffffffffffffffffffffffffffffffff1660808173ffffffffffffffffffffffffffffffffffffffff1681525050806000806101000a81548173ffffffffffffffffffffffffffffffffffffffff021916908373ffffffffffffffffffffffffffffffffffffffff160217905550506200014e565b600080fd5b600073ffffffffffffffffffffffffffffffffffffffff82169050919050565b6000620000e482620000b7565b9050919050565b620000f681620000d7565b81146200010257600080fd5b50565b6000815190506200011681620000eb565b92915050565b600060208284031215620001355762000134620000b2565b5b6000620001458482850162000105565b91505092915050565b6080516113696200017f600039600081816104ed0152818161073d0152818161078c015261098301526113696000f3fe60806040526004361061008a5760003560e01c8063893d20e811610059578063893d20e8146101405780639e87a5cd1461016b578063b60d428814610196578063be2693f0146101a0578063d7b4750c146101aa57610099565b80630343fb25146100a35780630d8e6e2c146100e05780633ccfd60b1461010b5780636b69a5921461011557610099565b36610099576100976101e7565b005b6100a16101e7565b005b3480156100af57600080fd5b506100ca60048036038101906100c59190610c74565b6103fc565b6040516100d79190610cba565b60405180910390f35b3480156100ec57600080fd5b506100f5610445565b6040516101029190610cba565b60405180910390f35b6101136104eb565b005b34801561012157600080fd5b5061012a61072c565b6040516101379190610cba565b60405180910390f35b34801561014c57600080fd5b50610155610739565b6040516101629190610ce4565b60405180910390f35b34801561017757600080fd5b50610180610761565b60405161018d9190610d5e565b60405180910390f35b61019e6101e7565b005b6101a861078a565b005b3480156101b657600080fd5b506101d160048036038101906101cc9190610da5565b610a46565b6040516101de9190610ce4565b60405180910390f35b6802b5e3af16b188000061022460008054906101000a900473ffffffffffffffffffffffffffffffffffffffff1634610a8e90919063ffffffff16565b1015610265576040517f08c379a000000000000000000000000000000000000000000000000000000000815260040161025c90610e2f565b60405180910390fd5b6000600160003373ffffffffffffffffffffffffffffffffffffffff1673ffffffffffffffffffffffffffffffffffffffff16815260200190815260200160002054141561036b5734600160003373ffffffffffffffffffffffffffffffffffffffff1673ffffffffffffffffffffffffffffffffffffffff16815260200190815260200160002060008282546102fc9190610e7e565b925050819055506002339080600181540180825580915050600190039060005260206000200160009091909190916101000a81548173ffffffffffffffffffffffffffffffffffffffff021916908373ffffffffffffffffffffffffffffffffffffffff1602179055506103fa565b34600160003373ffffffffffffffffffffffffffffffffffffffff1673ffffffffffffffffffffffffffffffffffffffff168152602001908152602001600020546103b69190610e7e565b600160003373ffffffffffffffffffffffffffffffffffffffff1673ffffffffffffffffffffffffffffffffffffffff168152602001908152602001600020819055505b565b6000600160008373ffffffffffffffffffffffffffffffffffffffff1673ffffffffffffffffffffffffffffffffffffffff168152602001908152602001600020549050919050565b60008060009054906101000a900473ffffffffffffffffffffffffffffffffffffffff1673ffffffffffffffffffffffffffffffffffffffff166354fd4d506040518163ffffffff1660e01b815260040160206040518083038186803b1580156104ae57600080fd5b505afa1580156104c2573d6000803e3d6000fd5b505050506040513d601f19601f820116820180604052508101906104e69190610ee9565b905090565b7f000000000000000000000000000000000000000000000000000000000000000073ffffffffffffffffffffffffffffffffffffffff163373ffffffffffffffffffffffffffffffffffffffff1614610570576040517f579610db00000000000000000000000000000000000000000000000000000000815260040160405180910390fd5b60005b60028054905081101561061c5760006002828154811061059657610595610f16565b5b9060005260206000200160009054906101000a900473ffffffffffffffffffffffffffffffffffffffff1690506000600160008373ffffffffffffffffffffffffffffffffffffffff1673ffffffffffffffffffffffffffffffffffffffff1681526020019081526020016000208190555050808061061490610f45565b915050610573565b50600067ffffffffffffffff81111561063857610637610f8e565b5b6040519080825280602002602001820160405280156106665781602001602082028036833780820191505090505b506002908051906020019061067c929190610b6a565b5060003373ffffffffffffffffffffffffffffffffffffffff16476040516106a390610fee565b60006040518083038185875af1925050503d80600081146106e0576040519150601f19603f3d011682016040523d82523d6000602084013e6106e5565b606091505b5050905080610729576040517f08c379a00000000000000000000000000000000000000000000000000000000081526004016107209061104f565b60405180910390fd5b50565b6802b5e3af16b188000081565b60007f0000000000000000000000000000000000000000000000000000000000000000905090565b60008060009054906101000a900473ffffffffffffffffffffffffffffffffffffffff16905090565b7f000000000000000000000000000000000000000000000000000000000000000073ffffffffffffffffffffffffffffffffffffffff163373ffffffffffffffffffffffffffffffffffffffff161461080f576040517f579610db00000000000000000000000000000000000000000000000000000000815260040160405180910390fd5b6000600280548060200260200160405190810160405280929190818152602001828054801561089357602002820191906000526020600020905b8160009054906101000a900473ffffffffffffffffffffffffffffffffffffffff1673ffffffffffffffffffffffffffffffffffffffff1681526020019060010190808311610849575b5050505050905060005b815181101561091e5760008282815181106108bb576108ba610f16565b5b602002602001015190506000600160008373ffffffffffffffffffffffffffffffffffffffff1673ffffffffffffffffffffffffffffffffffffffff1681526020019081526020016000208190555050808061091690610f45565b91505061089d565b50600067ffffffffffffffff81111561093a57610939610f8e565b5b6040519080825280602002602001820160405280156109685781602001602082028036833780820191505090505b506002908051906020019061097e929190610b6a565b5060007f000000000000000000000000000000000000000000000000000000000000000073ffffffffffffffffffffffffffffffffffffffff16476040516109c590610fee565b60006040518083038185875af1925050503d8060008114610a02576040519150601f19603f3d011682016040523d82523d6000602084013e610a07565b606091505b5050905080610a42576040517f579610db00000000000000000000000000000000000000000000000000000000815260040160405180910390fd5b5050565b600060028281548110610a5c57610a5b610f16565b5b9060005260206000200160009054906101000a900473ffffffffffffffffffffffffffffffffffffffff169050919050565b600080610a9a83610aca565b90506000670de0b6b3a76400008583610ab3919061106f565b610abd91906110f8565b9050809250505092915050565b6000808273ffffffffffffffffffffffffffffffffffffffff1663feaf968c6040518163ffffffff1660e01b815260040160a06040518083038186803b158015610b1357600080fd5b505afa158015610b27573d6000803e3d6000fd5b505050506040513d601f19601f82011682018060405250810190610b4b91906111a1565b5050509150506402540be40081610b62919061121c565b915050919050565b828054828255906000526020600020908101928215610be3579160200282015b82811115610be25782518260006101000a81548173ffffffffffffffffffffffffffffffffffffffff021916908373ffffffffffffffffffffffffffffffffffffffff16021790555091602001919060010190610b8a565b5b509050610bf09190610bf4565b5090565b5b80821115610c0d576000816000905550600101610bf5565b5090565b600080fd5b600073ffffffffffffffffffffffffffffffffffffffff82169050919050565b6000610c4182610c16565b9050919050565b610c5181610c36565b8114610c5c57600080fd5b50565b600081359050610c6e81610c48565b92915050565b600060208284031215610c8a57610c89610c11565b5b6000610c9884828501610c5f565b91505092915050565b6000819050919050565b610cb481610ca1565b82525050565b6000602082019050610ccf6000830184610cab565b92915050565b610cde81610c36565b82525050565b6000602082019050610cf96000830184610cd5565b92915050565b6000819050919050565b6000610d24610d1f610d1a84610c16565b610cff565b610c16565b9050919050565b6000610d3682610d09565b9050919050565b6000610d4882610d2b565b9050919050565b610d5881610d3d565b82525050565b6000602082019050610d736000830184610d4f565b92915050565b610d8281610ca1565b8114610d8d57600080fd5b50565b600081359050610d9f81610d79565b92915050565b600060208284031215610dbb57610dba610c11565b5b6000610dc984828501610d90565b91505092915050565b600082825260208201905092915050565b7f596f75206e65656420746f207370656e64206d6f726520455448210000000000600082015250565b6000610e19601b83610dd2565b9150610e2482610de3565b602082019050919050565b60006020820190508181036000830152610e4881610e0c565b9050919050565b7f4e487b7100000000000000000000000000000000000000000000000000000000600052601160045260246000fd5b6000610e8982610ca1565b9150610e9483610ca1565b9250827fffffffffffffffffffffffffffffffffffffffffffffffffffffffffffffffff03821115610ec957610ec8610e4f565b5b828201905092915050565b600081519050610ee381610d79565b92915050565b600060208284031215610eff57610efe610c11565b5b6000610f0d84828501610ed4565b91505092915050565b7f4e487b7100000000000000000000000000000000000000000000000000000000600052603260045260246000fd5b6000610f5082610ca1565b91507fffffffffffffffffffffffffffffffffffffffffffffffffffffffffffffffff821415610f8357610f82610e4f565b5b600182019050919050565b7f4e487b7100000000000000000000000000000000000000000000000000000000600052604160045260246000fd5b600081905092915050565b50565b6000610fd8600083610fbd565b9150610fe382610fc8565b600082019050919050565b6000610ff982610fcb565b9150819050919050565b7f43616c6c206661696c6564000000000000000000000000000000000000000000600082015250565b6000611039600b83610dd2565b915061104482611003565b602082019050919050565b600060208201905081810360008301526110688161102c565b9050919050565b600061107a82610ca1565b915061108583610ca1565b9250817fffffffffffffffffffffffffffffffffffffffffffffffffffffffffffffffff04831182151516156110be576110bd610e4f565b5b828202905092915050565b7f4e487b7100000000000000000000000000000000000000000000000000000000600052601260045260246000fd5b600061110382610ca1565b915061110e83610ca1565b92508261111e5761111d6110c9565b5b828204905092915050565b600069ffffffffffffffffffff82169050919050565b61114881611129565b811461115357600080fd5b50565b6000815190506111658161113f565b92915050565b6000819050919050565b61117e8161116b565b811461118957600080fd5b50565b60008151905061119b81611175565b92915050565b600080600080600060a086880312156111bd576111bc610c11565b5b60006111cb88828901611156565b95505060206111dc8882890161118c565b94505060406111ed88828901610ed4565b93505060606111fe88828901610ed4565b925050608061120f88828901611156565b9150509295509295909350565b60006112278261116b565b91506112328361116b565b9250827f7fffffffffffffffffffffffffffffffffffffffffffffffffffffffffffffff048211600084136000841316161561127157611270610e4f565b5b817f800000000000000000000000000000000000000000000000000000000000000005831260008412600084131616156112ae576112ad610e4f565b5b827f800000000000000000000000000000000000000000000000000000000000000005821260008413600084121616156112eb576112ea610e4f565b5b827f7fffffffffffffffffffffffffffffffffffffffffffffffffffffffffffffff058212600084126000841216161561132857611327610e4f565b5b82820290509291505056fea2646970667358221220918649f939e63d79d44a6605c0f1b03b9bb5b4a91e3dad1778fbdb6651a95ff064736f6c63430008090033",
  "devdoc": {
    "author": "Edison Mgbeokwere",
    "kind": "dev",
    "methods": {},
    "title": "A contract for crowd funding",
    "version": 1
  },
  "userdoc": {
    "kind": "user",
    "methods": {},
    "notice": "this contract is to demo a sample funding contract",
    "version": 1
  },
  "storageLayout": {
    "storage": [
      {
        "astId": 58,
        "contract": "contracts/FundMe.sol:FundMe",
        "label": "s_priceFeed",
        "offset": 0,
        "slot": "0",
        "type": "t_contract(AggregatorV3Interface)45"
      },
      {
        "astId": 62,
        "contract": "contracts/FundMe.sol:FundMe",
        "label": "s_addressToAmountFunded",
        "offset": 0,
        "slot": "1",
        "type": "t_mapping(t_address,t_uint256)"
      },
      {
        "astId": 65,
        "contract": "contracts/FundMe.sol:FundMe",
        "label": "s_funders",
        "offset": 0,
        "slot": "2",
        "type": "t_array(t_address)dyn_storage"
      }
    ],
    "types": {
      "t_address": {
        "encoding": "inplace",
        "label": "address",
        "numberOfBytes": "20"
      },
      "t_array(t_address)dyn_storage": {
        "base": "t_address",
        "encoding": "dynamic_array",
        "label": "address[]",
        "numberOfBytes": "32"
      },
      "t_contract(AggregatorV3Interface)45": {
        "encoding": "inplace",
        "label": "contract AggregatorV3Interface",
        "numberOfBytes": "20"
      },
      "t_mapping(t_address,t_uint256)": {
        "encoding": "mapping",
        "key": "t_address",
        "label": "mapping(address => uint256)",
        "numberOfBytes": "32",
        "value": "t_uint256"
      },
      "t_uint256": {
        "encoding": "inplace",
        "label": "uint256",
        "numberOfBytes": "32"
      }
    }
  }
}